:100000000C9434000C943E000C943E000C943E0082
:100010000C943E000C943E000C943E000C943E0068
:100020000C943E000C943E000C943E000C943E0058
:100030000C943E000C943E000C943E000C943E0048
:100040000C943E000C943E000C943E000C943E0038
:100050000C943E000C943E000C943E000C943E0028
:100060000C943E000C943E0011241FBECFEFD8E04C
:10007000DEBFCDBF0E94CE010C94D3010C940000D2
:10008000DF93CF93CDB7DEB727970FB6F894DEBFD7
:100090000FBECDBF9C838B836D838B819C819F839F
:1000A0008E838E819F8199232CF48E819F81079668
:1000B0009F838E838E819F81959587959595879552
:1000C000959587959A8389838D81882309F44BC000
:1000D00089819A81009701F5AAE2B0E0EAE2F0E0B6
:1000E0008081482F89819A81880F991F880F991FD5
:1000F000880F991F22273327281B390B8B819C815E
:10010000280F391F81E090E0022E02C0880F991F4E
:100110000A94E2F7842B8C9389819A81813091052E
:1001200009F06CC0A4E2B0E0E4E2F0E08081482F86
:1001300089819A81880F991F880F991F880F991FAD
:1001400022273327281B390B8B819C81280F391FCD
:1001500081E090E0022E02C0880F991F0A94E2F716
:10016000842B8C934BC089819A81009709F5AAE270
:10017000B0E0EAE2F0E08081482F89819A81880F1F
:10018000991F880F991F880F991F22273327281B33
:10019000390B8B819C81280F391F81E090E0022E62
:1001A00002C0880F991F0A94E2F7809584238C93EC
:1001B00089819A818130910509F5A4E2B0E0E4E2F9
:1001C000F0E08081482F89819A81880F991F880FDC
:1001D000991F880F991F22273327281B390B8B81E2
:1001E0009C81280F391F81E090E0022E02C0880F09
:1001F000991F0A94E2F7809584238C9327960FB673
:10020000F894DEBF0FBECDBFCF91DF910895DF938D
:10021000CF93CDB7DEB727970FB6F894DEBF0FBEEA
:10022000CDBF9C838B836D838B819C819F838E83C9
:100230008E819F8199232CF48E819F8107969F83C5
:100240008E838E819F8195958795959587959595B8
:1002500087959A8389838D81882309F44BC089818E
:100260009A81009701F5ABE2B0E0EBE2F0E080812B
:10027000482F89819A81880F991F880F991F880FAD
:10028000991F22273327281B390B8B819C81280F2C
:10029000391F81E090E0022E02C0880F991F0A9456
:1002A000E2F7842B8C9389819A818130910509F042
:1002B0006CC0A5E2B0E0E5E2F0E08081482F8981E2
:1002C0009A81880F991F880F991F880F991F2227DD
:1002D0003327281B390B8B819C81280F391F81E024
:1002E00090E0022E02C0880F991F0A94E2F7842B37
:1002F0008C934BC089819A81009709F5ABE2B0E0FD
:10030000EBE2F0E08081482F89819A81880F991F64
:10031000880F991F880F991F22273327281B390B15
:100320008B819C81280F391F81E090E0022E02C052
:10033000880F991F0A94E2F7809584238C93898112
:100340009A818130910509F5A5E2B0E0E5E2F0E09F
:100350008081482F89819A81880F991F880F991F62
:10036000880F991F22273327281B390B8B819C81EB
:10037000280F391F81E090E0022E02C0880F991FDC
:100380000A94E2F7809584238C9327960FB6F8940D
:10039000DEBF0FBECDBFCF91DF910895DF93CF9326
:0A03A000CDB7DEB7FFCFF894FFCF12
:00000001FF
