:100000000C9434000C943E000C943E000C943E0082
:100010000C943E000C943E000C943E000C943E0068
:100020000C943E000C943E000C943E000C943E0058
:100030000C943E000C943E000C943E000C943E0048
:100040000C943E000C943E000C943E000C943E0038
:100050000C943E000C943E000C943E000C943E0028
:100060000C943E000C943E0011241FBECFEFD8E04C
:10007000DEBFCDBF0E94B2010C94C9010C940000F8
:10008000CF93DF9300D000D01F92CDB7DEB79C8313
:100090008B836D838B819C8199230CF407969595B6
:1000A000879595958795959587959A8389838D8171
:1000B000882309F465C089819A810197E9F484E273
:1000C00090E024E230E0F9012081622F29813A8119
:1000D000220F331F220F331F220F331F4B815C81EE
:1000E000421B530B21E030E002C0220F331F4A9520
:1000F000E2F7262BFC01208389819A810297E9F49B
:1001000087E290E027E230E0F9012081622F298127
:100110003A81220F331F220F331F220F331F4B81CF
:100120005C81421B530B21E030E002C0220F331FE1
:100130004A95E2F7262BFC01208389819A81039757
:1001400009F084C08AE290E02AE230E0F9012081DF
:10015000622F29813A81220F331F220F331F220F72
:10016000331F4B815C81421B530B21E030E002C006
:10017000220F331F4A95E2F7262BFC01208366C02D
:1001800089819A810197F1F484E290E024E230E0E1
:10019000F9012081622F29813A81220F331F220F1A
:1001A000331F220F331F4B815C81421B530B21E015
:1001B00030E002C0220F331F4A95E2F72095262334
:1001C000FC01208389819A810297F1F487E290E013
:1001D00027E230E0F9012081622F29813A81220F44
:1001E000331F220F331F220F331F4B815C81421BB1
:1001F000530B21E030E002C0220F331F4A95E2F793
:1002000020952623FC01208389819A810397F1F4AC
:100210008AE290E02AE230E0F9012081622F298110
:100220003A81220F331F220F331F220F331F4B81BE
:100230005C81421B530B21E030E002C0220F331FD0
:100240004A95E2F720952623FC01208300000F90B9
:100250000F900F900F900F90DF91CF910895CF9353
:10026000DF9300D000D01F92CDB7DEB79C838B8385
:100270006D838B819C8199230CF4079695958795C6
:1002800095958795959587959A83898389819A8194
:100290000197E9F485E290E025E230E0F901208160
:1002A000622F29813A81220F331F220F331F220F21
:1002B000331F4B815C81421B530B21E030E002C0B5
:1002C000220F331F4A95E2F7262BFC0120838981F8
:1002D0009A810297E9F488E290E028E230E0F9019F
:1002E0002081622F29813A81220F331F220F331F71
:1002F000220F331F4B815C81421B530B21E030E006
:1003000002C0220F331F4A95E2F7262BFC012083FF
:1003100089819A810397E9F48BE290E02BE230E047
:10032000F9012081622F29813A81220F331F220F88
:10033000331F220F331F4B815C81421B530B21E083
:1003400030E002C0220F331F4A95E2F7262BFC0152
:10035000208300000F900F900F900F900F90DF916F
:10036000CF910895CF93DF9300D01F92CDB7DEB722
:100370008AE090E09A83898381E08B8389819A81E6
:100380006B810E94400089819A816B810E942F01BC
:06039000FFCFF894FFCF3F
:00000001FF
