:100000000C9434000C943E000C943E000C943E0082
:100010000C943E000C943E000C943E000C943E0068
:100020000C943E000C943E000C943E000C943E0058
:100030000C943E000C943E000C943E000C943E0048
:100040000C943E000C943E000C943E000C943E0038
:100050000C943E000C943E000C943E000C943E0028
:100060000C943E000C943E0011241FBECFEFD8E04C
:10007000DEBFCDBF0E9440000C945B000C940000DA
:10008000CF93DF93CDB7DEB78AE290E020E2FC01A8
:10009000208380E890E020E4FC01208381E890E068
:1000A0002BE0FC01208388E890E023E234EFFC01A0
:0A00B00031832083FFCFF894FFCFC7
:00000001FF
