:100000000C9434000C943E000C943E000C943E0082
:100010000C943E000C943E000C943E000C943E0068
:100020000C943E000C943E000C943E000C943E0058
:100030000C943E000C943E000C943E000C943E0048
:100040000C943E000C943E000C943E000C943E0038
:100050000C943E000C943E000C943E000C943E0028
:100060000C943E000C943E0011241FBECFEFD8E04C
:10007000DEBFCDBF0E94E2000C94E8000C940000AB
:100080009C01992314F4295F3F4F359527953595A9
:10009000279535952795662309F12115310569F4D2
:1000A0004AB121E030E0B90102C0660F771F8A959E
:1000B000E2F7CB01842B8AB908952130310581F50F
:1000C00044B1089721E030E0B90102C0660F771F04
:1000D0008A95E2F7CB01842B84B908952115310567
:1000E00071F44AB121E030E0B90102C0660F771F18
:1000F0008A95E2F7CB01809584238AB9089521304F
:10010000310571F444B1089721E030E0B90102C033
:10011000660F771F8A95E2F7CB018095842384B917
:1001200008959C01992314F4295F3F4F3595279535
:100130003595279535952795662309F121153105C4
:1001400069F44BB121E030E0B90102C0660F771FBE
:100150008A95E2F7CB01842B8BB9089521303105C4
:1001600081F545B1089721E030E0B90102C0660F82
:10017000771F8A95E2F7CB01842B85B90895211565
:10018000310571F44BB121E030E0B90102C0660FD6
:10019000771F8A95E2F7CB01809584238BB9089568
:1001A0002130310571F445B1089721E030E0B90103
:1001B00002C0660F771F8A95E2F7CB0180958423F2
:1001C00085B9089561E08AE090E00E944000FFCF89
:0401D000F894FFCFD1
:00000001FF
