:100000000C9434000C943E000C943E000C943E0082
:100010000C943E000C943E000C943E000C943E0068
:100020000C943E000C943E000C943E000C943E0058
:100030000C943E000C943E000C943E000C943E0048
:100040000C943E000C943E000C943E000C943E0038
:100050000C943E000C943E000C943E000C943E0028
:100060000C943E000C943E0011241FBECFEFD8E04C
:10007000DEBFCDBF0E9440000C9471000C940000C4
:10008000CF93DF9300D0CDB7DEB784E290E02FEFBF
:10009000FC01208385E290E0FC0110821A82198223
:1000A00005C089819A8101969A83898389819A8181
:1000B0000196B9F71A82198205C089819A81019641
:1000C0009A83898389819A810196B9F785E290E0C4
:1000D00025E230E0F901308121E02327FC01208373
:0600E000DDCFF894FFCF14
:00000001FF
